{
  "_format": "hh-sol-artifact-1",
  "contractName": "VotingSystem",
  "sourceName": "contracts/VotingSystem.sol",
  "abi": [
    {
      "inputs": [],
      "stateMutability": "nonpayable",
      "type": "constructor"
    },
    {
      "inputs": [
        {
          "internalType": "address",
          "name": "owner",
          "type": "address"
        }
      ],
      "name": "OwnableInvalidOwner",
      "type": "error"
    },
    {
      "inputs": [
        {
          "internalType": "address",
          "name": "account",
          "type": "address"
        }
      ],
      "name": "OwnableUnauthorizedAccount",
      "type": "error"
    },
    {
      "anonymous": false,
      "inputs": [
        {
          "indexed": true,
          "internalType": "uint256",
          "name": "candidateId",
          "type": "uint256"
        },
        {
          "indexed": false,
          "internalType": "string",
          "name": "name",
          "type": "string"
        }
      ],
      "name": "CandidateAdded",
      "type": "event"
    },
    {
      "anonymous": false,
      "inputs": [
        {
          "indexed": true,
          "internalType": "address",
          "name": "previousOwner",
          "type": "address"
        },
        {
          "indexed": true,
          "internalType": "address",
          "name": "newOwner",
          "type": "address"
        }
      ],
      "name": "OwnershipTransferred",
      "type": "event"
    },
    {
      "anonymous": false,
      "inputs": [
        {
          "indexed": true,
          "internalType": "address",
          "name": "voter",
          "type": "address"
        },
        {
          "indexed": true,
          "internalType": "uint256",
          "name": "candidateId",
          "type": "uint256"
        }
      ],
      "name": "VoteCast",
      "type": "event"
    },
    {
      "anonymous": false,
      "inputs": [
        {
          "indexed": true,
          "internalType": "address",
          "name": "voter",
          "type": "address"
        }
      ],
      "name": "VoterRegistered",
      "type": "event"
    },
    {
      "anonymous": false,
      "inputs": [
        {
          "indexed": false,
          "internalType": "enum VotingSystem.VotingState",
          "name": "newState",
          "type": "uint8"
        }
      ],
      "name": "VotingStateChanged",
      "type": "event"
    },
    {
      "inputs": [
        {
          "internalType": "string",
          "name": "_name",
          "type": "string"
        }
      ],
      "name": "addCandidate",
      "outputs": [],
      "stateMutability": "nonpayable",
      "type": "function"
    },
    {
      "inputs": [
        {
          "internalType": "uint256",
          "name": "",
          "type": "uint256"
        }
      ],
      "name": "candidates",
      "outputs": [
        {
          "internalType": "uint256",
          "name": "id",
          "type": "uint256"
        },
        {
          "internalType": "string",
          "name": "name",
          "type": "string"
        },
        {
          "internalType": "uint256",
          "name": "voteCount",
          "type": "uint256"
        }
      ],
      "stateMutability": "view",
      "type": "function"
    },
    {
      "inputs": [
        {
          "internalType": "uint256",
          "name": "_candidateId",
          "type": "uint256"
        }
      ],
      "name": "castVote",
      "outputs": [],
      "stateMutability": "nonpayable",
      "type": "function"
    },
    {
      "inputs": [],
      "name": "getCandidates",
      "outputs": [
        {
          "components": [
            {
              "internalType": "uint256",
              "name": "id",
              "type": "uint256"
            },
            {
              "internalType": "string",
              "name": "name",
              "type": "string"
            },
            {
              "internalType": "uint256",
              "name": "voteCount",
              "type": "uint256"
            }
          ],
          "internalType": "struct VotingSystem.Candidate[]",
          "name": "",
          "type": "tuple[]"
        }
      ],
      "stateMutability": "view",
      "type": "function"
    },
    {
      "inputs": [
        {
          "internalType": "address",
          "name": "_voter",
          "type": "address"
        }
      ],
      "name": "getVoterStatus",
      "outputs": [
        {
          "internalType": "bool",
          "name": "isRegistered",
          "type": "bool"
        },
        {
          "internalType": "bool",
          "name": "hasVoted",
          "type": "bool"
        },
        {
          "internalType": "uint256",
          "name": "votedCandidateId",
          "type": "uint256"
        }
      ],
      "stateMutability": "view",
      "type": "function"
    },
    {
      "inputs": [],
      "name": "owner",
      "outputs": [
        {
          "internalType": "address",
          "name": "",
          "type": "address"
        }
      ],
      "stateMutability": "view",
      "type": "function"
    },
    {
      "inputs": [
        {
          "internalType": "address",
          "name": "_voter",
          "type": "address"
        }
      ],
      "name": "registerVoter",
      "outputs": [],
      "stateMutability": "nonpayable",
      "type": "function"
    },
    {
      "inputs": [],
      "name": "renounceOwnership",
      "outputs": [],
      "stateMutability": "nonpayable",
      "type": "function"
    },
    {
      "inputs": [
        {
          "internalType": "enum VotingSystem.VotingState",
          "name": "_newState",
          "type": "uint8"
        }
      ],
      "name": "setState",
      "outputs": [],
      "stateMutability": "nonpayable",
      "type": "function"
    },
    {
      "inputs": [],
      "name": "state",
      "outputs": [
        {
          "internalType": "enum VotingSystem.VotingState",
          "name": "",
          "type": "uint8"
        }
      ],
      "stateMutability": "view",
      "type": "function"
    },
    {
      "inputs": [],
      "name": "totalVotes",
      "outputs": [
        {
          "internalType": "uint256",
          "name": "",
          "type": "uint256"
        }
      ],
      "stateMutability": "view",
      "type": "function"
    },
    {
      "inputs": [
        {
          "internalType": "address",
          "name": "newOwner",
          "type": "address"
        }
      ],
      "name": "transferOwnership",
      "outputs": [],
      "stateMutability": "nonpayable",
      "type": "function"
    },
    {
      "inputs": [
        {
          "internalType": "address",
          "name": "",
          "type": "address"
        }
      ],
      "name": "voters",
      "outputs": [
        {
          "internalType": "bool",
          "name": "isRegistered",
          "type": "bool"
        },
        {
          "internalType": "bool",
          "name": "hasVoted",
          "type": "bool"
        },
        {
          "internalType": "uint256",
          "name": "votedCandidateId",
          "type": "uint256"
        }
      ],
      "stateMutability": "view",
      "type": "function"
    }
  ],
  "bytecode": "0x60806040523480156200001157600080fd5b5033600073ffffffffffffffffffffffffffffffffffffffff168173ffffffffffffffffffffffffffffffffffffffff1603620000885760006040517f1e4fbdf70000000000000000000000000000000000000000000000000000000081526004016200007f9190620001d6565b60405180910390fd5b6200009981620000cd60201b60201c565b5060008060146101000a81548160ff02191690836003811115620000c257620000c1620001f3565b5b021790555062000222565b60008060009054906101000a900473ffffffffffffffffffffffffffffffffffffffff169050816000806101000a81548173ffffffffffffffffffffffffffffffffffffffff021916908373ffffffffffffffffffffffffffffffffffffffff1602179055508173ffffffffffffffffffffffffffffffffffffffff168173ffffffffffffffffffffffffffffffffffffffff167f8be0079c531659141344cd1fd0a4f28419497f9722a3daafe3b4186f6b6457e060405160405180910390a35050565b600073ffffffffffffffffffffffffffffffffffffffff82169050919050565b6000620001be8262000191565b9050919050565b620001d081620001b1565b82525050565b6000602082019050620001ed6000830184620001c5565b92915050565b7f4e487b7100000000000000000000000000000000000000000000000000000000600052602160045260246000fd5b611ae980620002326000396000f3fe608060405234801561001057600080fd5b50600436106100cf5760003560e01c806356de96db1161008c5780638da5cb5b116100665780638da5cb5b146101ee578063a3ec138d1461020c578063c19d93fb1461023e578063f2fde38b1461025c576100cf565b806356de96db14610196578063715018a6146101b257806378e3ef20146101bc576100cf565b806306a49fce146100d45780630d15fd77146100f25780633477ee2e1461011057806338db6dd3146101425780633eb76b9c1461015e578063462e91ec1461017a575b600080fd5b6100dc610278565b6040516100e99190610fdb565b60405180910390f35b6100fa61037d565b604051610107919061100c565b60405180910390f35b61012a60048036038101906101259190611067565b610383565b604051610139939291906110de565b60405180910390f35b61015c6004803603810190610157919061117a565b610445565b005b61017860048036038101906101739190611067565b610649565b005b610194600480360381019061018f91906112dc565b610962565b005b6101b060048036038101906101ab919061134a565b610a23565b005b6101ba610b04565b005b6101d660048036038101906101d1919061117a565b610b18565b6040516101e593929190611392565b60405180910390f35b6101f6610bc7565b60405161020391906113d8565b60405180910390f35b6102266004803603810190610221919061117a565b610bf0565b60405161023593929190611392565b60405180910390f35b610246610c34565b604051610253919061146a565b60405180910390f35b6102766004803603810190610271919061117a565b610c47565b005b60606002805480602002602001604051908101604052809291908181526020016000905b828210156103745783829060005260206000209060030201604051806060016040529081600082015481526020016001820180546102d9906114b4565b80601f0160208091040260200160405190810160405280929190818152602001828054610305906114b4565b80156103525780601f1061032757610100808354040283529160200191610352565b820191906000526020600020905b81548152906001019060200180831161033557829003601f168201915b505050505081526020016002820154815250508152602001906001019061029c565b50505050905090565b60035481565b6002818154811061039357600080fd5b90600052602060002090600302016000915090508060000154908060010180546103bc906114b4565b80601f01602080910402602001604051908101604052809291908181526020018280546103e8906114b4565b80156104355780601f1061040a57610100808354040283529160200191610435565b820191906000526020600020905b81548152906001019060200180831161041857829003601f168201915b5050505050908060020154905083565b61044d610ccd565b6001806003811115610462576104616113f3565b5b600060149054906101000a900460ff166003811115610484576104836113f3565b5b146104c4576040517f08c379a00000000000000000000000000000000000000000000000000000000081526004016104bb90611531565b60405180910390fd5b600160008373ffffffffffffffffffffffffffffffffffffffff1673ffffffffffffffffffffffffffffffffffffffff16815260200190815260200160002060000160009054906101000a900460ff1615610554576040517f08c379a000000000000000000000000000000000000000000000000000000000815260040161054b9061159d565b60405180910390fd5b60405180606001604052806001151581526020016000151581526020016000815250600160008473ffffffffffffffffffffffffffffffffffffffff1673ffffffffffffffffffffffffffffffffffffffff16815260200190815260200160002060008201518160000160006101000a81548160ff02191690831515021790555060208201518160000160016101000a81548160ff021916908315150217905550604082015181600101559050508173ffffffffffffffffffffffffffffffffffffffff167fb6be2187d059cc2a55fe29e0e503b566e1e0f8c8780096e185429350acffd3dd60405160405180910390a25050565b600280600381111561065e5761065d6113f3565b5b600060149054906101000a900460ff1660038111156106805761067f6113f3565b5b146106c0576040517f08c379a00000000000000000000000000000000000000000000000000000000081526004016106b790611531565b60405180910390fd5b600160003373ffffffffffffffffffffffffffffffffffffffff1673ffffffffffffffffffffffffffffffffffffffff16815260200190815260200160002060000160009054906101000a900460ff1661074f576040517f08c379a000000000000000000000000000000000000000000000000000000000815260040161074690611609565b60405180910390fd5b600160003373ffffffffffffffffffffffffffffffffffffffff1673ffffffffffffffffffffffffffffffffffffffff16815260200190815260200160002060000160019054906101000a900460ff16156107df576040517f08c379a00000000000000000000000000000000000000000000000000000000081526004016107d690611675565b60405180910390fd5b6002805490508210610826576040517f08c379a000000000000000000000000000000000000000000000000000000000815260040161081d906116e1565b60405180910390fd5b60018060003373ffffffffffffffffffffffffffffffffffffffff1673ffffffffffffffffffffffffffffffffffffffff16815260200190815260200160002060000160016101000a81548160ff02191690831515021790555081600160003373ffffffffffffffffffffffffffffffffffffffff1673ffffffffffffffffffffffffffffffffffffffff16815260200190815260200160002060010181905550600282815481106108db576108da611701565b5b906000526020600020906003020160020160008154809291906108fd9061175f565b9190505550600360008154809291906109159061175f565b9190505550813373ffffffffffffffffffffffffffffffffffffffff167fa36cc2bebb74db33e9f88110a07ef56e1b31b24b4c4f51b54b1664266e29f45b60405160405180910390a35050565b61096a610ccd565b6000600280549050905060026040518060600160405280838152602001848152602001600081525090806001815401808255809150506001900390600052602060002090600302016000909190919091506000820151816000015560208201518160010190816109da9190611953565b50604082015181600201555050807fe83b2a43e7e82d975c8a0a6d2f045153c869e111136a34d1889ab7b598e396a383604051610a179190611a25565b60405180910390a25050565b610a2b610ccd565b600060149054906101000a900460ff166003811115610a4d57610a4c6113f3565b5b816003811115610a6057610a5f6113f3565b5b11610aa0576040517f08c379a0000000000000000000000000000000000000000000000000000000008152600401610a9790611a93565b60405180910390fd5b80600060146101000a81548160ff02191690836003811115610ac557610ac46113f3565b5b02179055507f0bff4fa6ce8e5a509a5298c4ff2bb6c683db231a182a7ffbbadf1375ec73c4b581604051610af9919061146a565b60405180910390a150565b610b0c610ccd565b610b166000610d54565b565b600080600080600160008673ffffffffffffffffffffffffffffffffffffffff1673ffffffffffffffffffffffffffffffffffffffff1681526020019081526020016000206040518060600160405290816000820160009054906101000a900460ff161515151581526020016000820160019054906101000a900460ff161515151581526020016001820154815250509050806000015181602001518260400151935093509350509193909250565b60008060009054906101000a900473ffffffffffffffffffffffffffffffffffffffff16905090565b60016020528060005260406000206000915090508060000160009054906101000a900460ff16908060000160019054906101000a900460ff16908060010154905083565b600060149054906101000a900460ff1681565b610c4f610ccd565b600073ffffffffffffffffffffffffffffffffffffffff168173ffffffffffffffffffffffffffffffffffffffff1603610cc15760006040517f1e4fbdf7000000000000000000000000000000000000000000000000000000008152600401610cb891906113d8565b60405180910390fd5b610cca81610d54565b50565b610cd5610e18565b73ffffffffffffffffffffffffffffffffffffffff16610cf3610bc7565b73ffffffffffffffffffffffffffffffffffffffff1614610d5257610d16610e18565b6040517f118cdaa7000000000000000000000000000000000000000000000000000000008152600401610d4991906113d8565b60405180910390fd5b565b60008060009054906101000a900473ffffffffffffffffffffffffffffffffffffffff169050816000806101000a81548173ffffffffffffffffffffffffffffffffffffffff021916908373ffffffffffffffffffffffffffffffffffffffff1602179055508173ffffffffffffffffffffffffffffffffffffffff168173ffffffffffffffffffffffffffffffffffffffff167f8be0079c531659141344cd1fd0a4f28419497f9722a3daafe3b4186f6b6457e060405160405180910390a35050565b600033905090565b600081519050919050565b600082825260208201905092915050565b6000819050602082019050919050565b6000819050919050565b610e5f81610e4c565b82525050565b600081519050919050565b600082825260208201905092915050565b60005b83811015610e9f578082015181840152602081019050610e84565b60008484015250505050565b6000601f19601f8301169050919050565b6000610ec782610e65565b610ed18185610e70565b9350610ee1818560208601610e81565b610eea81610eab565b840191505092915050565b6000606083016000830151610f0d6000860182610e56565b5060208301518482036020860152610f258282610ebc565b9150506040830151610f3a6040860182610e56565b508091505092915050565b6000610f518383610ef5565b905092915050565b6000602082019050919050565b6000610f7182610e20565b610f7b8185610e2b565b935083602082028501610f8d85610e3c565b8060005b85811015610fc95784840389528151610faa8582610f45565b9450610fb583610f59565b925060208a01995050600181019050610f91565b50829750879550505050505092915050565b60006020820190508181036000830152610ff58184610f66565b905092915050565b61100681610e4c565b82525050565b60006020820190506110216000830184610ffd565b92915050565b6000604051905090565b600080fd5b600080fd5b61104481610e4c565b811461104f57600080fd5b50565b6000813590506110618161103b565b92915050565b60006020828403121561107d5761107c611031565b5b600061108b84828501611052565b91505092915050565b600082825260208201905092915050565b60006110b082610e65565b6110ba8185611094565b93506110ca818560208601610e81565b6110d381610eab565b840191505092915050565b60006060820190506110f36000830186610ffd565b818103602083015261110581856110a5565b90506111146040830184610ffd565b949350505050565b600073ffffffffffffffffffffffffffffffffffffffff82169050919050565b60006111478261111c565b9050919050565b6111578161113c565b811461116257600080fd5b50565b6000813590506111748161114e565b92915050565b6000602082840312156111905761118f611031565b5b600061119e84828501611165565b91505092915050565b600080fd5b600080fd5b7f4e487b7100000000000000000000000000000000000000000000000000000000600052604160045260246000fd5b6111e982610eab565b810181811067ffffffffffffffff82111715611208576112076111b1565b5b80604052505050565b600061121b611027565b905061122782826111e0565b919050565b600067ffffffffffffffff821115611247576112466111b1565b5b61125082610eab565b9050602081019050919050565b82818337600083830152505050565b600061127f61127a8461122c565b611211565b90508281526020810184848401111561129b5761129a6111ac565b5b6112a684828561125d565b509392505050565b600082601f8301126112c3576112c26111a7565b5b81356112d384826020860161126c565b91505092915050565b6000602082840312156112f2576112f1611031565b5b600082013567ffffffffffffffff8111156113105761130f611036565b5b61131c848285016112ae565b91505092915050565b6004811061133257600080fd5b50565b60008135905061134481611325565b92915050565b6000602082840312156113605761135f611031565b5b600061136e84828501611335565b91505092915050565b60008115159050919050565b61138c81611377565b82525050565b60006060820190506113a76000830186611383565b6113b46020830185611383565b6113c16040830184610ffd565b949350505050565b6113d28161113c565b82525050565b60006020820190506113ed60008301846113c9565b92915050565b7f4e487b7100000000000000000000000000000000000000000000000000000000600052602160045260246000fd5b60048110611433576114326113f3565b5b50565b600081905061144482611422565b919050565b600061145482611436565b9050919050565b61146481611449565b82525050565b600060208201905061147f600083018461145b565b92915050565b7f4e487b7100000000000000000000000000000000000000000000000000000000600052602260045260246000fd5b600060028204905060018216806114cc57607f821691505b6020821081036114df576114de611485565b5b50919050565b7f496e76616c696420737461746520666f722074686973206f7065726174696f6e600082015250565b600061151b602083611094565b9150611526826114e5565b602082019050919050565b6000602082019050818103600083015261154a8161150e565b9050919050565b7f566f74657220616c726561647920726567697374657265640000000000000000600082015250565b6000611587601883611094565b915061159282611551565b602082019050919050565b600060208201905081810360008301526115b68161157a565b9050919050565b7f566f746572206e6f742072656769737465726564000000000000000000000000600082015250565b60006115f3601483611094565b91506115fe826115bd565b602082019050919050565b60006020820190508181036000830152611622816115e6565b9050919050565b7f416c726561647920766f74656400000000000000000000000000000000000000600082015250565b600061165f600d83611094565b915061166a82611629565b602082019050919050565b6000602082019050818103600083015261168e81611652565b9050919050565b7f496e76616c69642063616e646964617465000000000000000000000000000000600082015250565b60006116cb601183611094565b91506116d682611695565b602082019050919050565b600060208201905081810360008301526116fa816116be565b9050919050565b7f4e487b7100000000000000000000000000000000000000000000000000000000600052603260045260246000fd5b7f4e487b7100000000000000000000000000000000000000000000000000000000600052601160045260246000fd5b600061176a82610e4c565b91507fffffffffffffffffffffffffffffffffffffffffffffffffffffffffffffffff820361179c5761179b611730565b5b600182019050919050565b60008190508160005260206000209050919050565b60006020601f8301049050919050565b600082821b905092915050565b6000600883026118097fffffffffffffffffffffffffffffffffffffffffffffffffffffffffffffffff826117cc565b61181386836117cc565b95508019841693508086168417925050509392505050565b6000819050919050565b600061185061184b61184684610e4c565b61182b565b610e4c565b9050919050565b6000819050919050565b61186a83611835565b61187e61187682611857565b8484546117d9565b825550505050565b600090565b611893611886565b61189e818484611861565b505050565b5b818110156118c2576118b760008261188b565b6001810190506118a4565b5050565b601f821115611907576118d8816117a7565b6118e1846117bc565b810160208510156118f0578190505b6119046118fc856117bc565b8301826118a3565b50505b505050565b600082821c905092915050565b600061192a6000198460080261190c565b1980831691505092915050565b60006119438383611919565b9150826002028217905092915050565b61195c82610e65565b67ffffffffffffffff811115611975576119746111b1565b5b61197f82546114b4565b61198a8282856118c6565b600060209050601f8311600181146119bd57600084156119ab578287015190505b6119b58582611937565b865550611a1d565b601f1984166119cb866117a7565b60005b828110156119f3578489015182556001820191506020850194506020810190506119ce565b86831015611a105784890151611a0c601f891682611919565b8355505b6001600288020188555050505b505050505050565b60006020820190508181036000830152611a3f81846110a5565b905092915050565b7f43616e206f6e6c79206d6f766520746f206e6578742073746174650000000000600082015250565b6000611a7d601b83611094565b9150611a8882611a47565b602082019050919050565b60006020820190508181036000830152611aac81611a70565b905091905056fea2646970667358221220bed71b9ff2fee10812c73bf9f4cf5c97b17efb45399989eda35dbe219b0c360464736f6c63430008140033",
  "linkReferences": {},
  "deployedLinkReferences": {}
}